:020000040000FA
:08000000803102288731FD2F39
:100B8C00163021009700080072302100990098015E
:100B9C002200960108008531DB2585318531CA2577
:100BAC0085318531C62585310800220090018C01E4
:100BBC008D018E010830210090008C018D018E0179
:100BCC0023008D018C01240090018D0121009517CB
:100BDC0022009D010800730872047104700403194B
:100BEC00F82DF92D322EF901F90A072E0130F035C6
:100BFC00F10DF20DF30D890BFD2D0130F800780885
:100C0C00F907F31F0A2E0B2EFC2D73087702031D18
:100C1C00192E72087602031D192E71087502031D18
:100C2C00192E70087402031C1C2E1D2E252E700804
:100C3C00F4027108F53B7208F63B7308F73B013080
:100C4C00F336F20CF10CF00C890B262E0130F90264
:100C5C00031D312E322E0B2E7708F3007608F2008E
:100C6C007508F1007408F00008000030FC0000303A
:100C7C00FB000030FA000030F900730872047104B4
:100C8C00700403194A2E4B2E8C2EFD01FD0A592E91
:100C9C000130F035F10DF20DF30D890B4F2E0130B3
:100CAC00F8007808FD07F31F5C2E5D2E4E2E0130E8
:100CBC00F935FA0DFB0DFC0D890B5E2E73087702CE
:100CCC00031D722E72087602031D722E71087502B6
:100CDC00031D722E70087402031C752E762E7F2E47
:100CEC007008F4027108F53B7208F63B7308F73B89
:100CFC0079140130F336F20CF10CF00C890B802EC8
:100D0C000130FD02031D8B2E8C2E5D2E7C08F30012
:100D1C007B08F2007A08F1007908F0000800F20074
:100D2C00D92E20008D130D138D120D12012F2000C2
:100D3C008D130D138D120D16012F20008D130D1315
:100D4C008D160D12012F20008D130D138D160D16FF
:100D5C00012F20008D130D178D120D12012F200065
:100D6C008D130D178D120D16012F20008D130D17DD
:100D7C008D160D12012F20008D130D178D160D16CB
:100D8C00012F20008D170D138D120D12012F200035
:100D9C008D170D138D120D16012F20008D170D17A9
:100DAC008D160D16012F7208F000F1017108003A32
:100DBC000319E12ED32E7008003A0319972E013A2D
:100DCC0003199D2E033A0319A32E013A0319A92ED8
:100DDC00073A0319AF2E013A0319B52E033A03193A
:100DEC00BB2E013A0319C12E0F3A0319C72E013A33
:100DFC000319CD2ED32E08008531D1258731003033
:100E0C002000AB000030AA000030A9000030A80080
:100E1C002000A7018C14003086319526873185304F
:100E2C00890B162F000020008C100C150030863119
:100E3C00952687318530890B212F000020000C115D
:100E4C002B08A6002A08A5002908A4002808A3003E
:100E5C00AC010030F3000030F2000030F1000A3039
:100E6C00F0002608F7002508F6002408F5002308F2
:100E7C00F4008531F125873170082000A00020088E
:100E8C00A200582F8C157A2F0C167A2F8C167A2FCD
:100E9C000C177A2F8C177A2F0D147A2F8D147A2F1A
:100EAC000D157A2F2C08A000A1012108003A031976
:100EBC00602F7A2F2008003A0319482F013A0319A2
:100ECC004A2F033A03194C2F013A03194E2F073AB4
:100EDC000319502F013A0319522F033A0319542FB7
:100EEC00013A0319562F7A2F22088631952687311D
:100EFC008530890B7F2F0000932F8C11B62F0C128D
:100F0C00B62F8C12B62F0C13B62F8C13B62F0D10C8
:100F1C00B62F8D10B62F0D11B62F20002C08A00067
:100F2C00A1012108003A03199C2FB62F2008003A82
:100F3C000319832F013A0319852F033A0319872FBD
:100F4C00013A0319892F073A03198B2F013A031918
:100F5C008D2F033A03198F2F013A0319912FB62FB6
:100F6C000030F3000030F2000030F1000A30F000E5
:100F7C002608F7002508F6002408F5002308F400DD
:100F8C0086313B26873173082000A6007208A50025
:100F9C007108A4007008A3000130A0002008AC0761
:100FAC0008302C02031CDB2FDC2F2F2F0130A0006C
:100FBC002008A70764302702031CE52FE62F102F0B
:100FCC000130A8070030A93D0030AA3D0030AB3DF0
:100FDC00FF302802E030293BF5302A3B05302B3B13
:100FEC00031CF92FFA2F0E2F052F80310228200019
:040FFC008731022F08
:020000040001F9
:04000E00E43FFF3E8E
:00000001FF
