:020000040000FA
:0400000080314A28D9
:100008007E1480310B1F09280A2848282100111E58
:100018000E280F281A282000111E132814281A2821
:1000280053088A0052080A00803148282100911E8E
:100038001E281F282A282000911E232824282A2821
:1000480051088A0050080A00803148282100921D72
:100058002E282F283D282000921D332834283D289B
:1000680043088A0042080A0080312000CA01CA0AEF
:1000780048282100911D4128422848282000911D28
:1000880046284728482834287E10090080314C2803
:10009800F601F701F801F9012030840000308500ED
:1000A8002C3087310E278031B6308400003085002F
:1000B800153087310E2780317E10200086310B2EB7
:1000C8002000D9005608803A7C3E03186C286D2819
:1000D8006F28DA017D285608803A783E031875287B
:1000E80076287928DA01DA0A7D280230D7005708FD
:1000F800DA002E305906031D82288328A3288A286F
:100108000F14352A8C17352A0C16352A5A08D700A9
:10011800D8015808003A03199228B6285708003A17
:1001280003198428013A03198628033A03198828F1
:10013800B6280F10352A8C13352A0C12352A5A087E
:10014800D700D8015808003A0319AB28B628570831
:10015800003A03199D28013A03199F28033A031905
:10016800A128B628352AC7280C130E108E100E1198
:10017800962A8C12101090101011962A0C108C10C0
:100188000C118C11962A5A08D700D8015808003A41
:100198000319CF28962A5708003A0319B828013AB4
:1001A8000319BD28033A0319C228962AEA280C1312
:1001B8000E108E100E15962A8C1210109010101515
:1001C800962A0C108C100C118C15962A5A08D700F8
:1001D800D8015808003A0319F228962A5708003A15
:1001E8000319DB28013A0319E028033A0319E52823
:1001F800962A0D290C130E108E140E11962A8C12A5
:10020800101090141011962A0C108C100C158C11CB
:10021800962A5A08D700D8015808003A0319152910
:10022800962A5708003A0319FE28013A03190329A8
:10023800033A03190829962A0C130E108E140E156A
:10024800962A8C12101090141015962A0C108C10E7
:100258000C158C15962A5A08D700D8015808003A68
:1002680003193729962A5708003A03192029013A11
:1002780003192529033A03192A29962A52290C1306
:100288000E148E100E11962A8C1210149010101144
:10029800962A0C108C140C118C11962A5A08D70027
:1002A800D8015808003A03195A29962A5708003ADB
:1002B80003194329013A03194829033A03194D2917
:1002C800962A75290C130E148E100E15962A8C1268
:1002D800101490101015962A0C108C140C118C15F3
:1002E800962A5A08D700D8015808003A03197D29D8
:1002F800962A5708003A03196629013A03196B2907
:10030800033A03197029962A98290C130E148E148F
:100318000E11962A8C12101490141011962A0C1093
:100328008C140C158C11962A5A08D700D801580835
:10033800003A0319A029962A5708003A031989296F
:10034800013A03198E29033A03199329962ABB29DE
:100358000C130E148E140E15962A8C121014901469
:100368001015962A0C108C140C158C15962A5A0800
:10037800D700D8015808003A0319C329962A570804
:10038800003A0319AC29013A0319B129033A0319B0
:10039800B629962A0C170E108E100E11962A8C1656
:1003A800101090101011962A0C148C100C118C112E
:1003B800962A5A08D700D8015808003A0319E5299F
:1003C800962A5708003A0319CE29013A0319D32966
:1003D800033A0319D829962A002A0C170E108E10F2
:1003E8000E15962A8C16101090101015962A0C14BB
:1003F8008C100C118C15962A5A08D700D801580869
:10040800003A0319082A962A5708003A0319F129CD
:10041800013A0319F629033A0319FB29962A0C17FE
:100428000E148E140E15962A8C161014901410158E
:10043800962A0C148C140C158C15962A5A08D70079
:10044800D8015808003A03192A2A962A5708003A68
:100458000319132A013A0319182A033A03191D2A02
:10046800962A5508D700D8015808003A03193D2A9A
:10047800222A5708203A0319222A053A03190D2976
:100488000E3A0319BB29063A0319DD291D3A031947
:10049800B728013A0319DA28033A0319FD28013A63
:1004A80003192F29073A03194229013A0319652923
:1004B800033A03198829013A0319AB290F3A03199A
:1004C800DD29013A0319F029783A0319EA28073A8D
:1004D8000319002A0E3A03199829053A03197529B0
:1004E800023A03190D291F3A0319002A033A03197E
:1004F8005229053A03197529013A0319C7283F3AC1
:100508000319BB29033A03195229063A03199829F2
:10051800033A0319EA281E3A03192F29053A031941
:10052800C728222A5608843168248031080021000F
:10053800B401B501082B3408B63E860087012E3079
:100548000106031DA82AA92ADE2A3408B63E860019
:10055800870101082000DB0021003508A03E860045
:10056800870120005B0881000130DB005B08210067
:10057800B40701302000DB005B082100B507340810
:10058800B63E8600870101082000DB0021003508FF
:10059800A03E8600870120005B0881000130DB0057
:1005A8005B082100B40701302000DB005B08210054
:1005B800B507082B20302000DB0021003508A03EBD
:1005C8008600870120005B0881000130DB005B08A2
:1005D8002100B5073408B63E8600870101082000CF
:1005E800DB0021003508A03E8600870120005B085B
:1005F80081000130DB005B082100B40701302000D6
:10060800DB005B082100B50714303502031C0D2BF5
:100618000E2B9F2A21082000DB005B08D500D6019D
:10062800210020088031642082312100290820001F
:10063800DB005B08D5000430DC005C08D600210034
:100648002808803164208231210031082000DB0035
:100658005B08D5000830DC005C08D60021003008B3
:10066800803164208231E43000320032890B382B2B
:100678000032003200308431B324823104308431B6
:10068800B324823108308431B32482318530890B18
:100698004B2B0000210023082000DB005B08D5005D
:1006A800D601D60A21002208803164208231210037
:1006B8002B082000DB005B08D5000530DC005C0857
:1006C800D60021002A0880316420823121003308B5
:1006D8002000DB005B08D5000930DC005C08D60090
:1006E80021003208803164208231E4300032003247
:1006F800890B7A2B0032003201308431B3248231E5
:1007080005308431B324823109308431B3248231F5
:100718008530890B8D2B0000210025082000DB0087
:100728005B08D5000230DC005C08D60021002408F4
:1007380080316420823121002D082000DB005B0815
:10074800D5000630DC005C08D60021002C0880317A
:1007580064208231E43000320032890BAF2B003242
:10076800003202308431B324823106308431B3241C
:1007780082318530890BBE2B00002100270820001C
:10078800DB005B08D5000330DC005C08D6002100E4
:10079800260880316420823121002F082000DB00E8
:1007A8005B08D5000730DC005C08D60021002E0865
:1007B800803164208231E43000320032890BE02B32
:1007C8000032003203308431B3248231073084315F
:1007D800B32482318530890BEF2B00000800873164
:1007E8008D278331873107278331003A0319FD2B81
:1007F800FE2B122C87316B278331003A0319052C05
:10080800062C0C2C0130F10071082000C4004E2C7D
:100818000230F10071082000C4004E2C87316B278C
:100828008331003A0319192C1A2C202C0330F100BB
:1008380071082000C4004E2C0430F100710820001B
:10084800C4004E2C8631BC26833187310027833182
:10085800003A0319302C312C642C8631A2268331BE
:10086800642C8631BC268331642C87310027833180
:10087800003A0319402C412C642C312C87317827FD
:100888008331003A0319492C4A2C642C8631AF264F
:100898008331642C4408F100F2017208003A03190C
:1008A800562C642C7108013A0319262C033A0319B3
:1008B800352C013A0319392C073A0319422C642CB8
:1008C80087318A2783310800F500882C20000F160D
:1008D800B22C20008F16B22C20000F17B22C20004B
:1008E8008F17B22C20000D14B22C20008D14B22CBE
:1008F80020000D15B22C20008D15B22C20000D16ED
:10090800B22C20008D16B22C7508F300F401F31BED
:10091800F4037408003A0319922CB22C7308003AB5
:1009280003196A2C013A03196D2C033A0319702C28
:10093800013A0319732C073A0319762C013A031963
:10094800792C033A03197C2C013A03197F2C0F3AAE
:100958000319822C013A0319852CB22C0800F500E2
:10096800D32C20000F12FD2C20008F12FD2C20000C
:100978000F13FD2C20008F13FD2C20000D10FD2CD3
:1009880020008D10FD2C20000D11FD2C20008D1154
:10099800FD2C20000D12FD2C20008D12FD2C750859
:1009A800F300F401F31BF4037408003A0319DD2C77
:1009B800FD2C7308003A0319B52C013A0319B82C19
:1009C800033A0319BB2C013A0319BE2C073A031941
:1009D800C12C013A0319C42C033A0319C72C013A54
:1009E8000319CA2C0F3A0319CD2C013A0319D02C3C
:1009F800FD2C0800210091127630F3000530F40038
:100A080087311A278431210011122E30F300063065
:100A1800F400873114278431083023009F00903078
:100A28009D0024309E00CF309B009C019330F30042
:100A38000730F4008731262784317C30F3000730F3
:100A4800F4008731202784318030F3000730F40028
:100A580087312C2784312000C801F901F8010830BA
:100A6800F5007508D400F701F601C90121009116B7
:100A78000800863195268531183087316127853100
:100A88007F3087315C278531F330F3000330F40081
:100A98008731442785310030F3000030F400873176
:100AA8004A2785315630F3000730F4008731322762
:100AB8008531DB30F3000630F40087313E2785317D
:100AC800E330F3000630F4008731502785310030D9
:100AD800F3000030F40087313827853187318727C4
:100AE800853108007708203E8600870181012300B0
:100AF8001D1D7F2D802D8B2D7708203E86008701B8
:100B0800811420004F088A004E080A00853123000E
:100B18009D1C8F2D902D9B2D7708203E86008701E8
:100B2800011520004D088A004C080A008531770815
:100B3800203E8600870101080319A32DA42DAB2DA3
:100B480021004C088A004B080A008531AE2D8631F9
:100B58006B2685310800F400243074060319B52D7E
:100B6800B62DBE2D20004B08803A6B3E031CBD2DD0
:100B7800BE2DD42D2000CB01F5012030F3007508DF
:100B8800B63E86008701730881000130F3007308C0
:100B9800F50714307502031CD22DD32DC12DE02D7D
:100BA8007408F3004B08B63E86008701730881007D
:100BB8000130F3007308CB07080020004908031927
:100BC800E62DE72DE12D7608203E860087010108F5
:100BD800F3007308C8007608283E860087010108DC
:100BE800F3007308F4000130F3007308F6070830C7
:100BF8007602031C002E012E022EF601210091120E
:100C080001302000C90221009116740808008631BD
:100C1800852686318B170B1785313D258631863120
:100C2800D2268631003A03191A2E1B2E1E2E863123
:100C3800F226863120004A080319232E242E282E56
:100C4800CA018631EB26863182319B228631132EEA
:100C580080314A280830200054020318342E352EDB
:100C68004D2E7808303E86008701010823009A003F
:100C78000130F0007008F80708307802031C452E90
:100C8800462E472EF8010130F00070082000D407E6
:100C98004F2E210011120800220090018F018C01B3
:100CA8008D018E010830210090008C018D01983053
:100CB8008E008F0123008F018D0190018C0124008B
:100CC80090018D012100951722009D010800230045
:100CD8001908F0007708283E86008701700881000F
:100CE8000130F0007008F70708307702031C7D2EEA
:100CF8007E2E7F2EF7010130F00070082000C90712
:100D080008008631C92686318631502686318631DB
:100D1800F92686318731742786318431FE2486315D
:100D280008002400951A992E9A2EA12E94010630B7
:100D3800F3007308950496019516080020003E08F4
:100D48003F040319A82EA92EAE2E3F088A003E089C
:100D58000A00863108002000400841040319B52E16
:100D6800B62EBB2E41088A0040080A0086310800CA
:100D780020003C083D040319C22EC32EC82E3D088E
:100D88008A003C080A0086310800240094010630D5
:100D9800F30073089504960195120800200049088D
:100DA800031DD72ED92E0130DA2E003008008731E6
:100DB80090278631F00070082000C60008008731AF
:100DC80090278631F00070082000C50008008731A0
:100DD800702786318531AF25863108008531E125B8
:100DE80086318531AF25863108007230210099009F
:100DF800980122009601080003102400141C031413
:100E08000030093D080003102400941E031400302C
:100E1800093D0800640080010131890B0F2F00345F
:100E280074082000D3007308D2000800740820005A
:100E3800D1007308D000080074082000CD007308A2
:100E4800CC00080074082000CF007308CE0008000A
:100E580074082100CC007308CB0008007408200037
:100E6800BF007308BE00080074082000B9007308AA
:100E7800B800080074082000C1007308C00008000A
:100E880074082000C3007308C2000800740820001A
:100E9800BB007308BA00080074082000BD0073087E
:100EA800BC00080020004708873166278731080002
:100EB800F3007335240093000800F3007335240011
:100EC80092000800F0007008240091000800240037
:100ED800140C890C013908008731842787310800F0
:100EE8001630210097000800240014080139080072
:100EF80023001D121D16080086316B268731080055
:100F08002400110808002100911508002400151676
:100F180008002000911108002400110808000800AA
:020000040001F9
:04000E00E43FFF3E8E
:00000001FF
