:020000040000FA
:0400000080312C28F7
:100008007E1480310B1F09280A282A282100111E76
:100018000E280F281A282000111E132814281A2821
:100028005E088A005D080A0080312A282100911E96
:100038001E281F282A282000911E232824282A2821
:100048005C088A005B080A0080312A287E100900B3
:1000580080312E28FA01FB01203084000030850011
:100068001D308531C8258031A030840000308500DE
:1000780015308531C82580317E1020008531952DB9
:10008800F8007508803A7C3E03184B284C284E2807
:10009800F9015C287508803A783E031854285528D9
:1000A8005828F901F90A5C280230F6007608F900A8
:1000B8002E307806031D6128622888286C282000C5
:1000C8000C163B2A20008C173B2A20000F143B2AD1
:1000D8007908F600F7017708003A031974289B2875
:1000E8007608003A03196328013A03196628033A87
:1000F800031969289B2820000C123B2A20008C1326
:100108003B2A20000F103B2A7908F600F7017708F0
:10011800003A031990289B287608003A03197F288B
:10012800013A03198228033A031985289B283B2A98
:10013800AF2820000C108C100C118C119C2A200068
:100148008C121010901010119C2A20000C130E1005
:100158008E100E119C2A7908F600F7017708003AEC
:100168000319B7289C2A7608003A03199D28013AF2
:100178000319A328033A0319A9289C2AD528200083
:100188000C108C100C118C159C2A20008C1210104D
:10019800901010159C2A20000C130E108E100E15AE
:1001A8009C2A7908F600F7017708003A0319DD2838
:1001B8009C2A7608003A0319C328013A0319C9286A
:1001C800033A0319CF289C2AFB2820000C108C1016
:1001D8000C158C119C2A20008C12101090141011F0
:1001E8009C2A20000C130E108E140E119C2A7908DC
:1001F800F600F7017708003A031903299C2A7608C4
:10020800003A0319E928013A0319EF28033A0319B8
:10021800F5289C2A20000C108C100C158C159C2A93
:1002280020008C121010901410159C2A20000C131A
:100238000E108E140E159C2A7908F600F70177081F
:10024800003A031928299C2A7608003A03190E292E
:10025800013A03191429033A03191A299C2A462931
:1002680020000C108C140C118C119C2A20008C126C
:100278001014901010119C2A20000C130E148E10CC
:100288000E119C2A7908F600F7017708003A03193D
:100298004E299C2A7608003A03193429013A031991
:1002A8003A29033A031940299C2A6C2920000C108A
:1002B8008C140C118C159C2A20008C121014901090
:1002C80010159C2A20000C130E148E100E159C2A53
:1002D8007908F600F7017708003A031974299C2A6F
:1002E8007608003A03195A29013A03196029033A92
:1002F800031966299C2A922920000C108C140C15CD
:100308008C119C2A20008C121014901410119C2A15
:1003180020000C130E148E140E119C2A7908F60076
:10032800F7017708003A03199A299C2A7608003AB7
:1003380003198029013A03198629033A03198C29DC
:100348009C2AB82920000C108C140C158C159C2A9A
:1003580020008C121014901410159C2A20000C13E5
:100368000E148E140E159C2A7908F600F7017708EA
:10037800003A0319C0299C2A7608003A0319A629CD
:10038800013A0319AC29033A0319B2299C2A20001F
:100398000C148C100C118C119C2A20008C16101037
:1003A800901010119C2A20000C170E108E100E11A0
:1003B8009C2A7908F600F7017708003A0319E5291D
:1003C8009C2A7608003A0319CB29013A0319D12946
:1003D800033A0319D7299C2A032A20000C148C10ED
:1003E8000C118C159C2A20008C16101090101015DA
:1003F8009C2A20000C170E108E100E159C2A7908C6
:10040800F600F7017708003A03190B2A9C2A7608A8
:10041800003A0319F129013A0319F729033A031994
:10042800FD299C2A20000C148C140C158C159C2A70
:1004380020008C161014901410159C2A20000C17FC
:100448000E148E140E159C2A7908F600F701770809
:10045800003A0319302A9C2A7608003A0319162A0A
:10046800013A03191C2A033A0319222A9C2A740800
:10047800F600F7017708003A0319432A282A760874
:10048800203A0319282A053A0319FB280E3A0319BA
:10049800B829063A0319DD291D3A03199C28013A9F
:1004A8000319C228033A0319E828013A0319202935
:1004B800073A03193329013A03195929033A031949
:1004C8007F29013A0319A5290F3A0319DD29013AB1
:1004D8000319F029783A0319D528073A0319032A8A
:1004E8000E3A03199229053A03196C29023A03199D
:1004F800FB281F3A0319032A033A03194629053A28
:1005080003196C29013A0319AF283F3A0319B8298E
:10051800033A03194629063A03199229033A03199B
:10052800D5281E3A03192029053A0319AF28282A85
:1005380075088331CF23803108002000D301D4010E
:10054800F82A5308A03E860087012E300106031DB5
:10055800AE2AAF2AD82A5308A03E86008701010890
:10056800BD0054083F3E860087013D0881000130E8
:10057800BD003D08D3070130BD003D08D40753082E
:10058800A03E860087010108BD0054083F3E860052
:1005980087013D0881000130BD003D08D3070130C7
:1005A800BD003D08D407F82A2030BD0054083F3E5E
:1005B800860087013D0881000130BD003D08D40751
:1005C8005308A03E860087010108BD0054083F3E3D
:1005D800860087013D0881000130BD003D08D30732
:1005E8000130BD003D08D40714305402031CFD2A15
:1005F800FE2AA52A4008BD003D08F400F5013F0881
:1006080080314420823120004808BD003D08F400B4
:100618000430BE003E08F50047088031442082318E
:1006280020005008BD003D08F4000830BE003E0818
:10063800F5004F08803144208231E4300032003226
:10064800890B222B00320032003084311A24823187
:10065800043084311A248231083084311A248231DA
:100668008530890B352B000020004208BD003D086D
:10067800F400F501F50A4108803144208231200058
:100688004A08BD003D08F4000530BE003E08F500EC
:10069800490880314420823120005208BD003D08BD
:1006A800F4000930BE003E08F500510880314420AE
:1006B8008231E43000320032890B5E2B0032003286
:1006C800013084311A248231053084311A24823170
:1006D800093084311A2482318530890B712B00004E
:1006E80020004408BD003D08F4000230BE003E086A
:1006F800F500430880314420823120004C08BD00B9
:100708003D08F4000630BE003E08F5004B08803175
:1007180044208231E43000320032890B8F2B0032C2
:100728000032023084311A248231063084311A248E
:1007380082318530890B9E2B000020004608BD00C1
:100748003D08F4000330BE003E08F500450880313E
:100758004420823120004E08BD003D08F4000730D7
:10076800BE003E08F5004D08803144208231E43057
:1007780000320032890BBC2B003200320330843146
:100788001A248231073084311A2482318530890B4A
:10079800CB2B00000800F300EF2B20008D17192C3D
:1007A80020000D17192C20008D16192C20000D166D
:1007B800192C20008D15192C20000D15192C20003E
:1007C8008D14192C20000D14192C20008F17192CAA
:1007D80020000F17192C7308F100F201F11BF20326
:1007E8007208003A0319F92B192C7108003A0319F9
:1007F800D12B013A0319D42B033A0319D72B013A09
:100808000319DA2B073A0319DD2B013A0319E02BF8
:10081800033A0319E32B013A0319E62B0F3A03199C
:10082800E92B013A0319EC2B192C0800F3003A2C98
:1008380020008D13642C20000D13642C20008D12D1
:10084800642C20000D12642C20008D11642C2000D3
:100858000D11642C20008D10642C20000D10642CC8
:1008680020008F13642C20000F13642C7308F100F0
:10087800F201F11BF2037208003A0319442C642CAC
:100888007108003A03191C2C013A03191F2C033A6A
:100898000319222C013A0319252C073A0319282C8D
:1008A800013A03192B2C033A03192E2C013A031988
:1008B800312C0F3A0319342C013A0319372C642CC4
:1008C800080021009112A430F1000430F2008531B3
:1008D800D4258431210011123E30F1000530F20098
:1008E8008531CE258431083023009F0090309D004B
:1008F80024309E00CF309B009C01F830F100053079
:10090800F2008531E0258431F030F1000530F20045
:100918008531DA258431F430F1000530F200853173
:10092800E62584312000B801BB01BA010830F30084
:100938007308DF00FB01FA01B901210091160800D4
:100948007B08203E86008701810123001D1DAD2CF8
:10095800AE2CB92C7B08203E86008701811420002C
:100968005A088A0059080A00843123009D1CBD2CAE
:10097800BE2CC92C7B08203E86008701011520006B
:1009880058088A0057080A0084317B08203E8600F0
:10099800870101080319D12CD22CD92C2000560824
:1009A8008A0055080A008431DC2C85317B25843186
:1009B8000800853114258431F3007308F4002430CD
:1009C80074060319E82CE92CF12C20003C08803A25
:1009D8006B3E031CF02CF12C072D2000BC01F50107
:1009E8002030F3007508A03E860087017308810057
:1009F8000130F3007308F50714307502031C052D48
:100A0800062DF42C132D7408F3003C08A03E860034
:100A18008701730881000130F3007308BC070800E0
:100A2800200039080319192D1A2D142D7A08203E93
:100A3800860087010108F1007108B8007A08283E8D
:100A4800860087010108F1007108F2000130F10009
:100A58007108FA0708307A02031C332D342D352D1E
:100A6800FA012100911201302000B90221009116EB
:100A780072080800083020005F020318442D452D35
:100A88005D2D3A08303E86008701010823009A0050
:100A98000130F00070082000BA0708303A02031C41
:100AA800562D572D582DBA010130F0007008DF0778
:100AB8005F2D210011120800220090018F018C0186
:100AC8008D018E010830210090008C018D0180304D
:100AD8008E008F0123008F018D0190018C0124006D
:100AE80090018D012100951722009D010800230027
:100AF8001908F0007B08283E8600870170088100ED
:100B08000130F0007008FB0708307B02031C8D2DB4
:100B18008E2D8F2DFB010130F00070082000B907E1
:100B280008008531AB2585318B170B178531B82522
:100B38008531003A0319A12DA22DA52D8431DD247C
:100B480085318231A12285319A2D80312C28853139
:100B5800602585318531C12585318531EC25853183
:100B6800843165248531080020003908031DBD2D16
:100B7800BF2D0130C02D00300800723021009900CF
:100B88009801220096010800640080010131890B58
:100B9800C92D003472082000DE007108DD0008004D
:100BA80072082000DC007108DB00080072082000D1
:100BB800D8007108D700080072082000DA00710810
:100BC800D900080072082000D6007108D500080076
:100BD800163021009700080023001D121D1608007A
:0A0BE80085317B25853108000800E7
:020000040001F9
:04000E00E43FFF3E8E
:00000001FF
