:020000040000FA
:08000000803102288731F12F45
:1007BC001630210097000800FE0012001E00FE0BF0
:1007CC00E32B00347230210099009801220096012D
:1007DC00080084310D2483318331E8238331833144
:1007EC00DE23833108002E3430342E34313420345F
:1007FC0032342034333420343434203435342E34F1
:10080C0036342034373420346B34203468342200AE
:10081C0090018F018C018D018E0108302100900018
:10082C008C018D018E018F0123008F018D019001B0
:10083C008C01240090018D012100951722009D014F
:10084C000800F200472C20008D13712C20000D1392
:10085C00712C20008D12712C20000D12712C200097
:10086C008D11712C20000D11712C20008D10712C0C
:10087C0020000D10712C20008F13712C20000F13F1
:10088C00712C7208F000F101F01BF1037108003AB1
:10089C000319512C712C7008003A0319292C013AB8
:1008AC0003192C2C033A03192F2C013A0319322C5F
:1008BC00073A0319352C013A0319382C033A03195A
:1008CC003B2C013A03193E2C0F3A0319412C013AE7
:1008DC000319442C712C0800F200922C20008D1767
:1008EC00BC2C20000D17BC2C20008D16BC2C20001D
:1008FC000D16BC2C20008D15BC2C20000D15BC2C0D
:10090C0020008D14BC2C20000D14BC2C20008F1743
:10091C00BC2C20000F17BC2C7208F000F101F01B4E
:10092C00F1037108003A03199C2CBC2C7008003A96
:10093C000319742C013A0319772C033A03197A2CF6
:10094C00013A03197D2C073A0319802C013A03193B
:10095C00832C033A0319862C013A0319892C0F3A7C
:10096C0003198C2C013A03198F2CBC2C08008331F1
:10097C00EF23843120002108F9007908F300F401F9
:10098C00200885319425843120002908F900790844
:10099C00F3000430FA007A08F40028088531942515
:1009AC00843120003108F9007908F3000830FA008E
:1009BC007A08F4003008853194258431E430003213
:1009CC000032890BE52C00320032003084312724B0
:1009DC008431043084312724843108308431272435
:1009EC0084318530890BF82C000020002308F90095
:1009FC007908F300F401F40A220885319425843136
:100A0C0020002B08F9007908F3000530FA007A0869
:100A1C00F4002A0885319425843120003308F9002C
:100A2C007908F3000930FA007A08F40032088531AD
:100A3C0094258431E43000320032890B212D0032B0
:100A4C00003201308431272484310530843127244D
:100A5C00843109308431272484318530890B342D3D
:100A6C00000020002508F9007908F3000230FA0094
:100A7C007A08F400240885319425843120002D084F
:100A8C00F9007908F3000630FA007A08F4002C0813
:100A9C00853194258431E43000320032890B522D9B
:100AAC000032003202308431272484310630843104
:100ABC00272484318530890B612D00002000270804
:100ACC00F9007908F3000330FA007A08F4002608DC
:100ADC0085319425843120002F08F9007908F30022
:100AEC000730FA007A08F4002E08853194258431F9
:100AFC00E43000320032890B7F2D0032003203309B
:100B0C008431272484310730843127248431853083
:100B1C00890B8E2D0000C02C80310228F700740840
:100B2C00803A7C3E03189B2D9C2D9E2DF801AC2DFC
:100B3C007408803A783E0318A42DA52DA82DF80131
:100B4C00F80AAC2D0230F5007508F8002E30770647
:100B5C00031DB12DB22DD82DBC2D20000C168B2FC2
:100B6C0020008C178B2F20000F148B2F7808F5008A
:100B7C00F6017608003A0319C42DEB2D7508003ADE
:100B8C000319B32D013A0319B62D033A0319B92DE4
:100B9C00EB2D20000C128B2F20008C138B2F2000A0
:100BAC000F108B2F7808F500F6017608003A031920
:100BBC00E02DEB2D7508003A0319CF2D013A0319DE
:100BCC00D22D033A0319D52DEB2D8B2FFF2D2000A1
:100BDC000C108C100C118C11EC2F20008C1210109E
:100BEC0090101011EC2F20000C130E108E100E1103
:100BFC00EC2F7808F500F6017608003A0319072E59
:100C0C00EC2F7508003A0319ED2D013A0319F32D59
:100C1C00033A0319F92DEC2F252E20000C108C1003
:100C2C000C118C15EC2F20008C121010901010153C
:100C3C00EC2F20000C130E108E100E15EC2F7808D4
:100C4C00F500F6017608003A03192D2EEC2F7508E5
:100C5C00003A0319132E013A0319192E033A0319FA
:100C6C001F2EEC2F4B2E20000C108C100C158C1101
:100C7C00EC2F20008C12101090141011EC2F20006F
:100C8C000C130E108E140E11EC2F7808F500F601D3
:100C9C007608003A0319532EEC2F7508003A031905
:100CAC00392E013A03193F2E033A0319452EEC2F26
:100CBC0020000C108C100C158C15EC2F20008C12B5
:100CCC00101090141015EC2F20000C130E108E1415
:100CDC000E15EC2F7808F500F6017608003A03198A
:100CEC00782EEC2F7508003A03195E2E013A031981
:100CFC00642E033A03196A2EEC2F962E20000C104A
:100D0C008C140C118C11EC2F20008C1210149010E0
:100D1C001011EC2F20000C130E148E100E11EC2F52
:100D2C007808F500F6017608003A03199E2EEC2F90
:100D3C007508003A0319842E013A03198A2E033AD6
:100D4C000319902EEC2FBC2E20000C108C140C11BF
:100D5C008C15EC2F20008C12101490101015EC2F09
:100D6C0020000C130E148E100E15EC2F7808F500C5
:100D7C00F6017608003A0319C42EEC2F7508003AD8
:100D8C000319AA2E013A0319B02E033A0319B62EF1
:100D9C00EC2FE22E20000C108C140C158C11EC2F67
:100DAC0020008C12101490141011EC2F20000C1336
:100DBC000E148E140E11EC2F7808F500F60176083F
:100DCC00003A0319EA2EEC2F7508003A0319D02EBD
:100DDC00013A0319D62E033A0319DC2EEC2F082FF7
:100DEC0020000C108C140C158C15EC2F20008C1280
:100DFC00101490141015EC2F20000C130E148E14DC
:100E0C000E15EC2F7808F500F6017608003A031958
:100E1C00102FEC2F7508003A0319F62E013A03191E
:100E2C00FC2E033A0319022FEC2F20000C148C100B
:100E3C000C118C11EC2F20008C161010901010112E
:100E4C00EC2F20000C170E108E100E11EC2F7808C2
:100E5C00F500F6017608003A0319352FEC2F7508CA
:100E6C00003A03191B2F013A0319212F033A0319D6
:100E7C00272FEC2F532F20000C148C100C118C15D9
:100E8C00EC2F20008C16101090101015EC2F200059
:100E9C000C170E108E100E15EC2F7808F500F601BD
:100EAC007608003A03195B2FEC2F7508003A0319EA
:100EBC00412F013A0319472F033A03194D2FEC2FF9
:100ECC0020000C148C140C158C15EC2F20008C1697
:100EDC00101490141015EC2F20000C170E148E14F7
:100EEC000E15EC2F7808F500F6017608003A031978
:100EFC00802FEC2F7508003A0319662F013A03195D
:100F0C006C2F033A0319722FEC2F7308F500F601BE
:100F1C007608003A0319932F782F7508203A031995
:100F2C00782F053A03194B2E0E3A0319082F063A5F
:100F3C0003192D2F1D3A0319EC2D013A0319122E0A
:100F4C00033A0319382E013A0319702E073A031984
:100F5C00832E013A0319A92E033A0319CF2E013A15
:100F6C000319F52E0F3A03192D2F013A0319402FAF
:100F7C00783A0319252E073A0319532F0E3A031901
:100F8C00E22E053A0319BC2E023A03194B2E1F3AD6
:100F9C000319532F033A0319962E053A0319BC2E45
:100FAC00013A0319FF2D3F3A0319082F033A03198D
:100FBC00962E063A0319E22E033A0319252E1E3AF1
:100FCC000319702E053A0319FF2D782F74088431FC
:100FDC00722485310800F93084008330850020307C
:100FEC0086000030870014308331E22387312000E3
:040FFC008431BD2C53
:020000040001F9
:04000E00E43FFF3E8E
:00000001FF
